{
  "_format": "hh-sol-artifact-1",
  "contractName": "DemoNFT",
  "sourceName": "contracts/DemoNFT.sol",
  "abi": [
    {
      "inputs": [],
      "stateMutability": "nonpayable",
      "type": "constructor"
    },
    {
      "anonymous": false,
      "inputs": [
        {
          "indexed": true,
          "internalType": "address",
          "name": "owner",
          "type": "address"
        },
        {
          "indexed": true,
          "internalType": "address",
          "name": "approved",
          "type": "address"
        },
        {
          "indexed": true,
          "internalType": "uint256",
          "name": "tokenId",
          "type": "uint256"
        }
      ],
      "name": "Approval",
      "type": "event"
    },
    {
      "anonymous": false,
      "inputs": [
        {
          "indexed": true,
          "internalType": "address",
          "name": "owner",
          "type": "address"
        },
        {
          "indexed": true,
          "internalType": "address",
          "name": "operator",
          "type": "address"
        },
        {
          "indexed": false,
          "internalType": "bool",
          "name": "approved",
          "type": "bool"
        }
      ],
      "name": "ApprovalForAll",
      "type": "event"
    },
    {
      "anonymous": false,
      "inputs": [
        {
          "indexed": false,
          "internalType": "address",
          "name": "sender",
          "type": "address"
        },
        {
          "indexed": false,
          "internalType": "uint256",
          "name": "tokenId",
          "type": "uint256"
        }
      ],
      "name": "NewNFTMinted",
      "type": "event"
    },
    {
      "anonymous": false,
      "inputs": [
        {
          "indexed": true,
          "internalType": "address",
          "name": "from",
          "type": "address"
        },
        {
          "indexed": true,
          "internalType": "address",
          "name": "to",
          "type": "address"
        },
        {
          "indexed": true,
          "internalType": "uint256",
          "name": "tokenId",
          "type": "uint256"
        }
      ],
      "name": "Transfer",
      "type": "event"
    },
    {
      "inputs": [
        {
          "internalType": "address",
          "name": "to",
          "type": "address"
        },
        {
          "internalType": "uint256",
          "name": "tokenId",
          "type": "uint256"
        }
      ],
      "name": "approve",
      "outputs": [],
      "stateMutability": "nonpayable",
      "type": "function"
    },
    {
      "inputs": [
        {
          "internalType": "address",
          "name": "owner",
          "type": "address"
        }
      ],
      "name": "balanceOf",
      "outputs": [
        {
          "internalType": "uint256",
          "name": "",
          "type": "uint256"
        }
      ],
      "stateMutability": "view",
      "type": "function"
    },
    {
      "inputs": [
        {
          "internalType": "uint256",
          "name": "tokenId",
          "type": "uint256"
        }
      ],
      "name": "getApproved",
      "outputs": [
        {
          "internalType": "address",
          "name": "",
          "type": "address"
        }
      ],
      "stateMutability": "view",
      "type": "function"
    },
    {
      "inputs": [
        {
          "internalType": "address",
          "name": "owner",
          "type": "address"
        },
        {
          "internalType": "address",
          "name": "operator",
          "type": "address"
        }
      ],
      "name": "isApprovedForAll",
      "outputs": [
        {
          "internalType": "bool",
          "name": "",
          "type": "bool"
        }
      ],
      "stateMutability": "view",
      "type": "function"
    },
    {
      "inputs": [],
      "name": "mint",
      "outputs": [],
      "stateMutability": "nonpayable",
      "type": "function"
    },
    {
      "inputs": [],
      "name": "name",
      "outputs": [
        {
          "internalType": "string",
          "name": "",
          "type": "string"
        }
      ],
      "stateMutability": "view",
      "type": "function"
    },
    {
      "inputs": [
        {
          "internalType": "uint256",
          "name": "tokenId",
          "type": "uint256"
        }
      ],
      "name": "ownerOf",
      "outputs": [
        {
          "internalType": "address",
          "name": "",
          "type": "address"
        }
      ],
      "stateMutability": "view",
      "type": "function"
    },
    {
      "inputs": [
        {
          "internalType": "uint256",
          "name": "tokenId",
          "type": "uint256"
        }
      ],
      "name": "pickRandomFirstWord",
      "outputs": [
        {
          "internalType": "string",
          "name": "",
          "type": "string"
        }
      ],
      "stateMutability": "view",
      "type": "function"
    },
    {
      "inputs": [
        {
          "internalType": "uint256",
          "name": "tokenId",
          "type": "uint256"
        }
      ],
      "name": "pickRandomSecondWord",
      "outputs": [
        {
          "internalType": "string",
          "name": "",
          "type": "string"
        }
      ],
      "stateMutability": "view",
      "type": "function"
    },
    {
      "inputs": [
        {
          "internalType": "address",
          "name": "from",
          "type": "address"
        },
        {
          "internalType": "address",
          "name": "to",
          "type": "address"
        },
        {
          "internalType": "uint256",
          "name": "tokenId",
          "type": "uint256"
        }
      ],
      "name": "safeTransferFrom",
      "outputs": [],
      "stateMutability": "nonpayable",
      "type": "function"
    },
    {
      "inputs": [
        {
          "internalType": "address",
          "name": "from",
          "type": "address"
        },
        {
          "internalType": "address",
          "name": "to",
          "type": "address"
        },
        {
          "internalType": "uint256",
          "name": "tokenId",
          "type": "uint256"
        },
        {
          "internalType": "bytes",
          "name": "_data",
          "type": "bytes"
        }
      ],
      "name": "safeTransferFrom",
      "outputs": [],
      "stateMutability": "nonpayable",
      "type": "function"
    },
    {
      "inputs": [
        {
          "internalType": "address",
          "name": "operator",
          "type": "address"
        },
        {
          "internalType": "bool",
          "name": "approved",
          "type": "bool"
        }
      ],
      "name": "setApprovalForAll",
      "outputs": [],
      "stateMutability": "nonpayable",
      "type": "function"
    },
    {
      "inputs": [
        {
          "internalType": "bytes4",
          "name": "interfaceId",
          "type": "bytes4"
        }
      ],
      "name": "supportsInterface",
      "outputs": [
        {
          "internalType": "bool",
          "name": "",
          "type": "bool"
        }
      ],
      "stateMutability": "view",
      "type": "function"
    },
    {
      "inputs": [],
      "name": "symbol",
      "outputs": [
        {
          "internalType": "string",
          "name": "",
          "type": "string"
        }
      ],
      "stateMutability": "view",
      "type": "function"
    },
    {
      "inputs": [
        {
          "internalType": "uint256",
          "name": "tokenId",
          "type": "uint256"
        }
      ],
      "name": "tokenURI",
      "outputs": [
        {
          "internalType": "string",
          "name": "",
          "type": "string"
        }
      ],
      "stateMutability": "view",
      "type": "function"
    },
    {
      "inputs": [
        {
          "internalType": "address",
          "name": "from",
          "type": "address"
        },
        {
          "internalType": "address",
          "name": "to",
          "type": "address"
        },
        {
          "internalType": "uint256",
          "name": "tokenId",
          "type": "uint256"
        }
      ],
      "name": "transferFrom",
      "outputs": [],
      "stateMutability": "nonpayable",
      "type": "function"
    }
  ],
  "bytecode": "0x608060405260405180610160016040528061012f8152602001620041d061012f913960089080519060200190620000389291906200079b565b506040518061020001604052806040518060400160405280600b81526020017f73746572656f747970656400000000000000000000000000000000000000000081525081526020016040518060400160405280600581526020017f776974747900000000000000000000000000000000000000000000000000000081525081526020016040518060400160405280600581526020017f726f6f6d7900000000000000000000000000000000000000000000000000000081525081526020016040518060400160405280600981526020017f6661722d666c756e67000000000000000000000000000000000000000000000081525081526020016040518060400160405280600881526020017f7969656c64696e6700000000000000000000000000000000000000000000000081525081526020016040518060400160405280600881526020017f706572696f64696300000000000000000000000000000000000000000000000081525081526020016040518060400160405280600481526020017f677261790000000000000000000000000000000000000000000000000000000081525081526020016040518060400160405280600781526020017f736572696f75730000000000000000000000000000000000000000000000000081525081526020016040518060400160405280600781526020017f64617368696e670000000000000000000000000000000000000000000000000081525081526020016040518060400160405280600c81526020017f696e63616e64657363656e74000000000000000000000000000000000000000081525081526020016040518060400160405280600881526020017f7265736f6e616e7400000000000000000000000000000000000000000000000081525081526020016040518060400160405280600681526020017f637265657079000000000000000000000000000000000000000000000000000081525081526020016040518060400160405280600a81526020017f6e617573656174696e670000000000000000000000000000000000000000000081525081526020016040518060400160405280600781526020017f626f696c696e670000000000000000000000000000000000000000000000000081525081526020016040518060400160405280600681526020017f6d6967687479000000000000000000000000000000000000000000000000000081525081526020016040518060400160405280600781526020017f7769737466756c000000000000000000000000000000000000000000000000008152508152506009906010620004059291906200082c565b506040518061018001604052806040518060400160405280600781526020017f6c6164796275670000000000000000000000000000000000000000000000000081525081526020016040518060400160405280600781526020017f737765617465720000000000000000000000000000000000000000000000000081525081526020016040518060400160405280600981526020017f6170706c69616e6365000000000000000000000000000000000000000000000081525081526020016040518060400160405280600781526020017f6d61696c626f780000000000000000000000000000000000000000000000000081525081526020016040518060400160405280600681526020017f666c6f776572000000000000000000000000000000000000000000000000000081525081526020016040518060400160405280600481526020017f72616b650000000000000000000000000000000000000000000000000000000081525081526020016040518060400160405280600481526020017f646f6c6c0000000000000000000000000000000000000000000000000000000081525081526020016040518060400160405280600581526020017f666c65736800000000000000000000000000000000000000000000000000000081525081526020016040518060400160405280600781526020017f62616c6c6f6f6e0000000000000000000000000000000000000000000000000081525081526020016040518060400160405280600581526020017f676c6f766500000000000000000000000000000000000000000000000000000081525081526020016040518060400160405280600681526020017f636163747573000000000000000000000000000000000000000000000000000081525081526020016040518060400160405280600481526020017f7374617200000000000000000000000000000000000000000000000000000000815250815250600a90600c620006e692919062000893565b50348015620006f457600080fd5b506040518060400160405280600781526020017f44656d6f4e4654000000000000000000000000000000000000000000000000008152506040518060400160405280600481526020017f44656d6f000000000000000000000000000000000000000000000000000000008152508160009080519060200190620007799291906200079b565b508060019080519060200190620007929291906200079b565b505050620009ec565b828054620007a99062000987565b90600052602060002090601f016020900481019282620007cd576000855562000819565b82601f10620007e857805160ff191683800117855562000819565b8280016001018555821562000819579182015b8281111562000818578251825591602001919060010190620007fb565b5b509050620008289190620008fa565b5090565b82805482825590600052602060002090810192821562000880579160200282015b828111156200087f5782518290805190602001906200086e9291906200079b565b50916020019190600101906200084d565b5b5090506200088f919062000919565b5090565b828054828255906000526020600020908101928215620008e7579160200282015b82811115620008e6578251829080519060200190620008d59291906200079b565b5091602001919060010190620008b4565b5b509050620008f6919062000919565b5090565b5b8082111562000915576000816000905550600101620008fb565b5090565b5b808211156200093d576000818162000933919062000941565b506001016200091a565b5090565b5080546200094f9062000987565b6000825580601f1062000963575062000984565b601f016020900490600052602060002090810190620009839190620008fa565b5b50565b60006002820490506001821680620009a057607f821691505b60208210811415620009b757620009b6620009bd565b5b50919050565b7f4e487b7100000000000000000000000000000000000000000000000000000000600052602260045260246000fd5b6137d480620009fc6000396000f3fe608060405234801561001057600080fd5b50600436106101005760003560e01c80636352211e11610097578063b187301f11610066578063b187301f146102ab578063b88d4fde146102db578063c87b56dd146102f7578063e985e9c51461032757610100565b80636352211e1461021157806370a082311461024157806395d89b4114610271578063a22cb4651461028f57610100565b80631249c58b116100d35780631249c58b1461019f57806323b872dd146101a95780632de38d68146101c557806342842e0e146101f557610100565b806301ffc9a71461010557806306fdde0314610135578063081812fc14610153578063095ea7b314610183575b600080fd5b61011f600480360381019061011a9190612381565b610357565b60405161012c9190612a15565b60405180910390f35b61013d610439565b60405161014a9190612a30565b60405180910390f35b61016d600480360381019061016891906123d3565b6104cb565b60405161017a9190612985565b60405180910390f35b61019d60048036038101906101989190612345565b610550565b005b6101a7610668565b005b6101c360048036038101906101be919061223f565b61083f565b005b6101df60048036038101906101da91906123d3565b61089f565b6040516101ec9190612a30565b60405180910390f35b61020f600480360381019061020a919061223f565b6109bd565b005b61022b600480360381019061022691906123d3565b6109dd565b6040516102389190612985565b60405180910390f35b61025b600480360381019061025691906121da565b610a8f565b6040516102689190612c90565b60405180910390f35b610279610b47565b6040516102869190612a30565b60405180910390f35b6102a960048036038101906102a49190612309565b610bd9565b005b6102c560048036038101906102c091906123d3565b610bef565b6040516102d29190612a30565b60405180910390f35b6102f560048036038101906102f0919061228e565b610d0d565b005b610311600480360381019061030c91906123d3565b610d6f565b60405161031e9190612a30565b60405180910390f35b610341600480360381019061033c9190612203565b610ec1565b60405161034e9190612a15565b60405180910390f35b60007f80ac58cd000000000000000000000000000000000000000000000000000000007bffffffffffffffffffffffffffffffffffffffffffffffffffffffff1916827bffffffffffffffffffffffffffffffffffffffffffffffffffffffff1916148061042257507f5b5e139f000000000000000000000000000000000000000000000000000000007bffffffffffffffffffffffffffffffffffffffffffffffffffffffff1916827bffffffffffffffffffffffffffffffffffffffffffffffffffffffff1916145b80610432575061043182610f55565b5b9050919050565b60606000805461044890612f24565b80601f016020809104026020016040519081016040528092919081815260200182805461047490612f24565b80156104c15780601f10610496576101008083540402835291602001916104c1565b820191906000526020600020905b8154815290600101906020018083116104a457829003601f168201915b5050505050905090565b60006104d682610fbf565b610515576040517f08c379a000000000000000000000000000000000000000000000000000000000815260040161050c90612c10565b60405180910390fd5b6004600083815260200190815260200160002060009054906101000a900473ffffffffffffffffffffffffffffffffffffffff169050919050565b600061055b826109dd565b90508073ffffffffffffffffffffffffffffffffffffffff168373ffffffffffffffffffffffffffffffffffffffff1614156105cc576040517f08c379a00000000000000000000000000000000000000000000000000000000081526004016105c390612c50565b60405180910390fd5b8073ffffffffffffffffffffffffffffffffffffffff166105eb61102b565b73ffffffffffffffffffffffffffffffffffffffff16148061061a57506106198161061461102b565b610ec1565b5b610659576040517f08c379a000000000000000000000000000000000000000000000000000000000815260040161065090612b50565b60405180910390fd5b6106638383611033565b505050565b600061067460076110ec565b905060006106818261089f565b9050600061068e83610bef565b9050600082826040516020016106a5929190612887565b604051602081830303815290604052905060006008826040516020016106cc9291906128ab565b60405160208183030381529060405290506000610711836106ec846110fa565b6040516020016106fd9291906128fc565b6040516020818303038152906040526110fa565b90506000816040516020016107269190612963565b60405160208183030381529060405290506107756040518060400160405280601581526020017f0a2d2d2d2d2d2d2d2d2d2d2d2d2d2d2d2d2d2d2d2d00000000000000000000008152506112b8565b61077e816112b8565b6107bc6040518060400160405280601581526020017f2d2d2d2d2d2d2d2d2d2d2d2d2d2d2d2d2d2d2d2d0a00000000000000000000008152506112b8565b6107c63388611351565b6107d0878261136f565b6107da60076113e3565b6107fd60405180606001604052806025815260200161373a6025913988336113f9565b7f1c05098ed1ff38e6238d2b1b04b2c7977d4c94ce651bda6473f9dba8dbf01da0338860405161082e9291906129ec565b60405180910390a150505050505050565b61085061084a61102b565b82611498565b61088f576040517f08c379a000000000000000000000000000000000000000000000000000000000815260040161088690612c70565b60405180910390fd5b61089a838383611576565b505050565b606060006108d36108af846117dd565b6040516020016108bf9190612941565b60405160208183030381529060405261198a565b9050600980549050816108e69190612fd0565b905060098181548110610922577f4e487b7100000000000000000000000000000000000000000000000000000000600052603260045260246000fd5b90600052602060002001805461093790612f24565b80601f016020809104026020016040519081016040528092919081815260200182805461096390612f24565b80156109b05780601f10610985576101008083540402835291602001916109b0565b820191906000526020600020905b81548152906001019060200180831161099357829003601f168201915b5050505050915050919050565b6109d883838360405180602001604052806000815250610d0d565b505050565b6000806002600084815260200190815260200160002060009054906101000a900473ffffffffffffffffffffffffffffffffffffffff169050600073ffffffffffffffffffffffffffffffffffffffff168173ffffffffffffffffffffffffffffffffffffffff161415610a86576040517f08c379a0000000000000000000000000000000000000000000000000000000008152600401610a7d90612b90565b60405180910390fd5b80915050919050565b60008073ffffffffffffffffffffffffffffffffffffffff168273ffffffffffffffffffffffffffffffffffffffff161415610b00576040517f08c379a0000000000000000000000000000000000000000000000000000000008152600401610af790612b70565b60405180910390fd5b600360008373ffffffffffffffffffffffffffffffffffffffff1673ffffffffffffffffffffffffffffffffffffffff168152602001908152602001600020549050919050565b606060018054610b5690612f24565b80601f0160208091040260200160405190810160405280929190818152602001828054610b8290612f24565b8015610bcf5780601f10610ba457610100808354040283529160200191610bcf565b820191906000526020600020905b815481529060010190602001808311610bb257829003601f168201915b5050505050905090565b610beb610be461102b565b83836119bd565b5050565b60606000610c23610bff846117dd565b604051602001610c0f91906128da565b60405160208183030381529060405261198a565b9050600a8054905081610c369190612fd0565b9050600a8181548110610c72577f4e487b7100000000000000000000000000000000000000000000000000000000600052603260045260246000fd5b906000526020600020018054610c8790612f24565b80601f0160208091040260200160405190810160405280929190818152602001828054610cb390612f24565b8015610d005780601f10610cd557610100808354040283529160200191610d00565b820191906000526020600020905b815481529060010190602001808311610ce357829003601f168201915b5050505050915050919050565b610d1e610d1861102b565b83611498565b610d5d576040517f08c379a0000000000000000000000000000000000000000000000000000000008152600401610d5490612c70565b60405180910390fd5b610d6984848484611b2a565b50505050565b6060610d7a82610fbf565b610db9576040517f08c379a0000000000000000000000000000000000000000000000000000000008152600401610db090612bf0565b60405180910390fd5b6000600660008481526020019081526020016000208054610dd990612f24565b80601f0160208091040260200160405190810160405280929190818152602001828054610e0590612f24565b8015610e525780601f10610e2757610100808354040283529160200191610e52565b820191906000526020600020905b815481529060010190602001808311610e3557829003601f168201915b505050505090506000610e63611b86565b9050600081511415610e79578192505050610ebc565b600082511115610eae578082604051602001610e96929190612887565b60405160208183030381529060405292505050610ebc565b610eb784611b9d565b925050505b919050565b6000600560008473ffffffffffffffffffffffffffffffffffffffff1673ffffffffffffffffffffffffffffffffffffffff16815260200190815260200160002060008373ffffffffffffffffffffffffffffffffffffffff1673ffffffffffffffffffffffffffffffffffffffff16815260200190815260200160002060009054906101000a900460ff16905092915050565b60007f01ffc9a7000000000000000000000000000000000000000000000000000000007bffffffffffffffffffffffffffffffffffffffffffffffffffffffff1916827bffffffffffffffffffffffffffffffffffffffffffffffffffffffff1916149050919050565b60008073ffffffffffffffffffffffffffffffffffffffff166002600084815260200190815260200160002060009054906101000a900473ffffffffffffffffffffffffffffffffffffffff1673ffffffffffffffffffffffffffffffffffffffff1614159050919050565b600033905090565b816004600083815260200190815260200160002060006101000a81548173ffffffffffffffffffffffffffffffffffffffff021916908373ffffffffffffffffffffffffffffffffffffffff160217905550808273ffffffffffffffffffffffffffffffffffffffff166110a6836109dd565b73ffffffffffffffffffffffffffffffffffffffff167f8c5be1e5ebec7d5bd14f71427d1e84f3dd0314c0f7b2291e5b200ac8c7c3b92560405160405180910390a45050565b600081600001549050919050565b6060600082519050600081141561112357604051806020016040528060008152509150506112b3565b600060036002836111349190612d59565b61113e9190612daf565b600461114a9190612de0565b9050600060208261115b9190612d59565b67ffffffffffffffff81111561119a577f4e487b7100000000000000000000000000000000000000000000000000000000600052604160045260246000fd5b6040519080825280601f01601f1916602001820160405280156111cc5781602001600182028036833780820191505090505b509050600060405180606001604052806040815260200161375f604091399050600181016020830160005b868110156112705760038101905062ffffff818a015116603f8160121c168401518060081b905060ff603f83600c1c1686015116810190508060081b905060ff603f8360061c1686015116810190508060081b905060ff603f831686015116810190508060e01b905080845260048401935050506111f7565b50600386066001811461128a576002811461129a576112a5565b613d3d60f01b60028303526112a5565b603d60f81b60018303525b508484525050819450505050505b919050565b61134e816040516024016112cc9190612a30565b6040516020818303038152906040527f41304fac000000000000000000000000000000000000000000000000000000007bffffffffffffffffffffffffffffffffffffffffffffffffffffffff19166020820180517bffffffffffffffffffffffffffffffffffffffffffffffffffffffff8381831617835250505050611c44565b50565b61136b828260405180602001604052806000815250611c6d565b5050565b61137882610fbf565b6113b7576040517f08c379a00000000000000000000000000000000000000000000000000000000081526004016113ae90612bb0565b60405180910390fd5b806006600084815260200190815260200160002090805190602001906113de929190612066565b505050565b6001816000016000828254019250508190555050565b61149383838360405160240161141193929190612a52565b6040516020818303038152906040527fe3849f79000000000000000000000000000000000000000000000000000000007bffffffffffffffffffffffffffffffffffffffffffffffffffffffff19166020820180517bffffffffffffffffffffffffffffffffffffffffffffffffffffffff8381831617835250505050611c44565b505050565b60006114a382610fbf565b6114e2576040517f08c379a00000000000000000000000000000000000000000000000000000000081526004016114d990612b30565b60405180910390fd5b60006114ed836109dd565b90508073ffffffffffffffffffffffffffffffffffffffff168473ffffffffffffffffffffffffffffffffffffffff16148061155c57508373ffffffffffffffffffffffffffffffffffffffff16611544846104cb565b73ffffffffffffffffffffffffffffffffffffffff16145b8061156d575061156c8185610ec1565b5b91505092915050565b8273ffffffffffffffffffffffffffffffffffffffff16611596826109dd565b73ffffffffffffffffffffffffffffffffffffffff16146115ec576040517f08c379a00000000000000000000000000000000000000000000000000000000081526004016115e390612ab0565b60405180910390fd5b600073ffffffffffffffffffffffffffffffffffffffff168273ffffffffffffffffffffffffffffffffffffffff16141561165c576040517f08c379a000000000000000000000000000000000000000000000000000000000815260040161165390612af0565b60405180910390fd5b611667838383611cc8565b611672600082611033565b6001600360008573ffffffffffffffffffffffffffffffffffffffff1673ffffffffffffffffffffffffffffffffffffffff16815260200190815260200160002060008282546116c29190612e3a565b925050819055506001600360008473ffffffffffffffffffffffffffffffffffffffff1673ffffffffffffffffffffffffffffffffffffffff16815260200190815260200160002060008282546117199190612d59565b92505081905550816002600083815260200190815260200160002060006101000a81548173ffffffffffffffffffffffffffffffffffffffff021916908373ffffffffffffffffffffffffffffffffffffffff160217905550808273ffffffffffffffffffffffffffffffffffffffff168473ffffffffffffffffffffffffffffffffffffffff167fddf252ad1be2c89b69c2b068fc378daa952ba7f163c4a11628f55a4df523b3ef60405160405180910390a46117d8838383611ccd565b505050565b60606000821415611825576040518060400160405280600181526020017f30000000000000000000000000000000000000000000000000000000000000008152509050611985565b600082905060005b6000821461185757808061184090612f87565b915050600a826118509190612daf565b915061182d565b60008167ffffffffffffffff811115611899577f4e487b7100000000000000000000000000000000000000000000000000000000600052604160045260246000fd5b6040519080825280601f01601f1916602001820160405280156118cb5781602001600182028036833780820191505090505b5090505b6000851461197e576001826118e49190612e3a565b9150600a856118f39190612fd0565b60306118ff9190612d59565b60f81b81838151811061193b577f4e487b7100000000000000000000000000000000000000000000000000000000600052603260045260246000fd5b60200101907effffffffffffffffffffffffffffffffffffffffffffffffffffffffffffff1916908160001a905350600a856119779190612daf565b94506118cf565b8093505050505b919050565b60008160405160200161199d9190612870565b6040516020818303038152906040528051906020012060001c9050919050565b8173ffffffffffffffffffffffffffffffffffffffff168373ffffffffffffffffffffffffffffffffffffffff161415611a2c576040517f08c379a0000000000000000000000000000000000000000000000000000000008152600401611a2390612b10565b60405180910390fd5b80600560008573ffffffffffffffffffffffffffffffffffffffff1673ffffffffffffffffffffffffffffffffffffffff16815260200190815260200160002060008473ffffffffffffffffffffffffffffffffffffffff1673ffffffffffffffffffffffffffffffffffffffff16815260200190815260200160002060006101000a81548160ff0219169083151502179055508173ffffffffffffffffffffffffffffffffffffffff168373ffffffffffffffffffffffffffffffffffffffff167f17307eab39ab6107e8899845ad3d59bd9653f200f220920489ca2b5937696c3183604051611b1d9190612a15565b60405180910390a3505050565b611b35848484611576565b611b4184848484611cd2565b611b80576040517f08c379a0000000000000000000000000000000000000000000000000000000008152600401611b7790612a90565b60405180910390fd5b50505050565b606060405180602001604052806000815250905090565b6060611ba882610fbf565b611be7576040517f08c379a0000000000000000000000000000000000000000000000000000000008152600401611bde90612c30565b60405180910390fd5b6000611bf1611b86565b90506000815111611c115760405180602001604052806000815250611c3c565b80611c1b846117dd565b604051602001611c2c929190612887565b6040516020818303038152906040525b915050919050565b60008151905060006a636f6e736f6c652e6c6f679050602083016000808483855afa5050505050565b611c778383611e69565b611c846000848484611cd2565b611cc3576040517f08c379a0000000000000000000000000000000000000000000000000000000008152600401611cba90612a90565b60405180910390fd5b505050565b505050565b505050565b6000611cf38473ffffffffffffffffffffffffffffffffffffffff16612043565b15611e5c578373ffffffffffffffffffffffffffffffffffffffff1663150b7a02611d1c61102b565b8786866040518563ffffffff1660e01b8152600401611d3e94939291906129a0565b602060405180830381600087803b158015611d5857600080fd5b505af1925050508015611d8957506040513d601f19601f82011682018060405250810190611d8691906123aa565b60015b611e0c573d8060008114611db9576040519150601f19603f3d011682016040523d82523d6000602084013e611dbe565b606091505b50600081511415611e04576040517f08c379a0000000000000000000000000000000000000000000000000000000008152600401611dfb90612a90565b60405180910390fd5b805181602001fd5b63150b7a0260e01b7bffffffffffffffffffffffffffffffffffffffffffffffffffffffff1916817bffffffffffffffffffffffffffffffffffffffffffffffffffffffff191614915050611e61565b600190505b949350505050565b600073ffffffffffffffffffffffffffffffffffffffff168273ffffffffffffffffffffffffffffffffffffffff161415611ed9576040517f08c379a0000000000000000000000000000000000000000000000000000000008152600401611ed090612bd0565b60405180910390fd5b611ee281610fbf565b15611f22576040517f08c379a0000000000000000000000000000000000000000000000000000000008152600401611f1990612ad0565b60405180910390fd5b611f2e60008383611cc8565b6001600360008473ffffffffffffffffffffffffffffffffffffffff1673ffffffffffffffffffffffffffffffffffffffff1681526020019081526020016000206000828254611f7e9190612d59565b92505081905550816002600083815260200190815260200160002060006101000a81548173ffffffffffffffffffffffffffffffffffffffff021916908373ffffffffffffffffffffffffffffffffffffffff160217905550808273ffffffffffffffffffffffffffffffffffffffff16600073ffffffffffffffffffffffffffffffffffffffff167fddf252ad1be2c89b69c2b068fc378daa952ba7f163c4a11628f55a4df523b3ef60405160405180910390a461203f60008383611ccd565b5050565b6000808273ffffffffffffffffffffffffffffffffffffffff163b119050919050565b82805461207290612f24565b90600052602060002090601f01602090048101928261209457600085556120db565b82601f106120ad57805160ff19168380011785556120db565b828001600101855582156120db579182015b828111156120da5782518255916020019190600101906120bf565b5b5090506120e891906120ec565b5090565b5b808211156121055760008160009055506001016120ed565b5090565b600061211c61211784612cd0565b612cab565b90508281526020810184848401111561213457600080fd5b61213f848285612ee2565b509392505050565b600081359050612156816136dd565b92915050565b60008135905061216b816136f4565b92915050565b6000813590506121808161370b565b92915050565b6000815190506121958161370b565b92915050565b600082601f8301126121ac57600080fd5b81356121bc848260208601612109565b91505092915050565b6000813590506121d481613722565b92915050565b6000602082840312156121ec57600080fd5b60006121fa84828501612147565b91505092915050565b6000806040838503121561221657600080fd5b600061222485828601612147565b925050602061223585828601612147565b9150509250929050565b60008060006060848603121561225457600080fd5b600061226286828701612147565b935050602061227386828701612147565b9250506040612284868287016121c5565b9150509250925092565b600080600080608085870312156122a457600080fd5b60006122b287828801612147565b94505060206122c387828801612147565b93505060406122d4878288016121c5565b925050606085013567ffffffffffffffff8111156122f157600080fd5b6122fd8782880161219b565b91505092959194509250565b6000806040838503121561231c57600080fd5b600061232a85828601612147565b925050602061233b8582860161215c565b9150509250929050565b6000806040838503121561235857600080fd5b600061236685828601612147565b9250506020612377858286016121c5565b9150509250929050565b60006020828403121561239357600080fd5b60006123a184828501612171565b91505092915050565b6000602082840312156123bc57600080fd5b60006123ca84828501612186565b91505092915050565b6000602082840312156123e557600080fd5b60006123f3848285016121c5565b91505092915050565b61240581612e6e565b82525050565b61241481612e80565b82525050565b600061242582612d16565b61242f8185612d2c565b935061243f818560208601612ef1565b612448816130bd565b840191505092915050565b600061245e82612d21565b6124688185612d3d565b9350612478818560208601612ef1565b612481816130bd565b840191505092915050565b600061249782612d21565b6124a18185612d4e565b93506124b1818560208601612ef1565b80840191505092915050565b600081546124ca81612f24565b6124d48186612d4e565b945060018216600081146124ef576001811461250057612533565b60ff19831686528186019350612533565b61250985612d01565b60005b8381101561252b5781548189015260018201915060208101905061250c565b838801955050505b50505092915050565b6000612549603283612d3d565b9150612554826130ce565b604082019050919050565b600061256c602583612d3d565b91506125778261311d565b604082019050919050565b600061258f601c83612d3d565b915061259a8261316c565b602082019050919050565b60006125b2602483612d3d565b91506125bd82613195565b604082019050919050565b60006125d5601983612d3d565b91506125e0826131e4565b602082019050919050565b60006125f8600b83612d4e565b91506126038261320d565b600b82019050919050565b600061261b602c83612d3d565b915061262682613236565b604082019050919050565b600061263e600d83612d4e565b915061264982613285565b600d82019050919050565b6000612661603883612d3d565b915061266c826132ae565b604082019050919050565b6000612684602a83612d3d565b915061268f826132fd565b604082019050919050565b60006126a7602983612d3d565b91506126b28261334c565b604082019050919050565b60006126ca602e83612d3d565b91506126d58261339b565b604082019050919050565b60006126ed600283612d4e565b91506126f8826133ea565b600282019050919050565b6000612710602083612d3d565b915061271b82613413565b602082019050919050565b6000612733603183612d3d565b915061273e8261343c565b604082019050919050565b6000612756602c83612d3d565b91506127618261348b565b604082019050919050565b6000612779602f83612d3d565b9150612784826134da565b604082019050919050565b600061279c600a83612d4e565b91506127a782613529565b600a82019050919050565b60006127bf602183612d3d565b91506127ca82613552565b604082019050919050565b60006127e2600a83612d4e565b91506127ed826135a1565b600a82019050919050565b6000612805601d83612d4e565b9150612810826135ca565b601d82019050919050565b6000612828603183612d3d565b9150612833826135f3565b604082019050919050565b600061284b606b83612d4e565b915061285682613642565b606b82019050919050565b61286a81612ed8565b82525050565b600061287c828461248c565b915081905092915050565b6000612893828561248c565b915061289f828461248c565b91508190509392505050565b60006128b782856124bd565b91506128c3828461248c565b91506128ce82612631565b91508190509392505050565b60006128e5826125eb565b91506128f1828461248c565b915081905092915050565b60006129078261278f565b9150612913828561248c565b915061291e8261283e565b915061292a828461248c565b9150612935826126e0565b91508190509392505050565b600061294c826127d5565b9150612958828461248c565b915081905092915050565b600061296e826127f8565b915061297a828461248c565b915081905092915050565b600060208201905061299a60008301846123fc565b92915050565b60006080820190506129b560008301876123fc565b6129c260208301866123fc565b6129cf6040830185612861565b81810360608301526129e1818461241a565b905095945050505050565b6000604082019050612a0160008301856123fc565b612a0e6020830184612861565b9392505050565b6000602082019050612a2a600083018461240b565b92915050565b60006020820190508181036000830152612a4a8184612453565b905092915050565b60006060820190508181036000830152612a6c8186612453565b9050612a7b6020830185612861565b612a8860408301846123fc565b949350505050565b60006020820190508181036000830152612aa98161253c565b9050919050565b60006020820190508181036000830152612ac98161255f565b9050919050565b60006020820190508181036000830152612ae981612582565b9050919050565b60006020820190508181036000830152612b09816125a5565b9050919050565b60006020820190508181036000830152612b29816125c8565b9050919050565b60006020820190508181036000830152612b498161260e565b9050919050565b60006020820190508181036000830152612b6981612654565b9050919050565b60006020820190508181036000830152612b8981612677565b9050919050565b60006020820190508181036000830152612ba98161269a565b9050919050565b60006020820190508181036000830152612bc9816126bd565b9050919050565b60006020820190508181036000830152612be981612703565b9050919050565b60006020820190508181036000830152612c0981612726565b9050919050565b60006020820190508181036000830152612c2981612749565b9050919050565b60006020820190508181036000830152612c498161276c565b9050919050565b60006020820190508181036000830152612c69816127b2565b9050919050565b60006020820190508181036000830152612c898161281b565b9050919050565b6000602082019050612ca56000830184612861565b92915050565b6000612cb5612cc6565b9050612cc18282612f56565b919050565b6000604051905090565b600067ffffffffffffffff821115612ceb57612cea61308e565b5b612cf4826130bd565b9050602081019050919050565b60008190508160005260206000209050919050565b600081519050919050565b600081519050919050565b600082825260208201905092915050565b600082825260208201905092915050565b600081905092915050565b6000612d6482612ed8565b9150612d6f83612ed8565b9250827fffffffffffffffffffffffffffffffffffffffffffffffffffffffffffffffff03821115612da457612da3613001565b5b828201905092915050565b6000612dba82612ed8565b9150612dc583612ed8565b925082612dd557612dd4613030565b5b828204905092915050565b6000612deb82612ed8565b9150612df683612ed8565b9250817fffffffffffffffffffffffffffffffffffffffffffffffffffffffffffffffff0483118215151615612e2f57612e2e613001565b5b828202905092915050565b6000612e4582612ed8565b9150612e5083612ed8565b925082821015612e6357612e62613001565b5b828203905092915050565b6000612e7982612eb8565b9050919050565b60008115159050919050565b60007fffffffff0000000000000000000000000000000000000000000000000000000082169050919050565b600073ffffffffffffffffffffffffffffffffffffffff82169050919050565b6000819050919050565b82818337600083830152505050565b60005b83811015612f0f578082015181840152602081019050612ef4565b83811115612f1e576000848401525b50505050565b60006002820490506001821680612f3c57607f821691505b60208210811415612f5057612f4f61305f565b5b50919050565b612f5f826130bd565b810181811067ffffffffffffffff82111715612f7e57612f7d61308e565b5b80604052505050565b6000612f9282612ed8565b91507fffffffffffffffffffffffffffffffffffffffffffffffffffffffffffffffff821415612fc557612fc4613001565b5b600182019050919050565b6000612fdb82612ed8565b9150612fe683612ed8565b925082612ff657612ff5613030565b5b828206905092915050565b7f4e487b7100000000000000000000000000000000000000000000000000000000600052601160045260246000fd5b7f4e487b7100000000000000000000000000000000000000000000000000000000600052601260045260246000fd5b7f4e487b7100000000000000000000000000000000000000000000000000000000600052602260045260246000fd5b7f4e487b7100000000000000000000000000000000000000000000000000000000600052604160045260246000fd5b6000601f19601f8301169050919050565b7f4552433732313a207472616e7366657220746f206e6f6e20455243373231526560008201527f63656976657220696d706c656d656e7465720000000000000000000000000000602082015250565b7f4552433732313a207472616e736665722066726f6d20696e636f72726563742060008201527f6f776e6572000000000000000000000000000000000000000000000000000000602082015250565b7f4552433732313a20746f6b656e20616c7265616479206d696e74656400000000600082015250565b7f4552433732313a207472616e7366657220746f20746865207a65726f2061646460008201527f7265737300000000000000000000000000000000000000000000000000000000602082015250565b7f4552433732313a20617070726f766520746f2063616c6c657200000000000000600082015250565b7f5345434f4e445f574f5244000000000000000000000000000000000000000000600082015250565b7f4552433732313a206f70657261746f7220717565727920666f72206e6f6e657860008201527f697374656e7420746f6b656e0000000000000000000000000000000000000000602082015250565b7f3c2f746578743e3c2f7376673e00000000000000000000000000000000000000600082015250565b7f4552433732313a20617070726f76652063616c6c6572206973206e6f74206f7760008201527f6e6572206e6f7220617070726f76656420666f7220616c6c0000000000000000602082015250565b7f4552433732313a2062616c616e636520717565727920666f7220746865207a6560008201527f726f206164647265737300000000000000000000000000000000000000000000602082015250565b7f4552433732313a206f776e657220717565727920666f72206e6f6e657869737460008201527f656e7420746f6b656e0000000000000000000000000000000000000000000000602082015250565b7f45524337323155524953746f726167653a2055524920736574206f66206e6f6e60008201527f6578697374656e7420746f6b656e000000000000000000000000000000000000602082015250565b7f227d000000000000000000000000000000000000000000000000000000000000600082015250565b7f4552433732313a206d696e7420746f20746865207a65726f2061646472657373600082015250565b7f45524337323155524953746f726167653a2055524920717565727920666f722060008201527f6e6f6e6578697374656e7420746f6b656e000000000000000000000000000000602082015250565b7f4552433732313a20617070726f76656420717565727920666f72206e6f6e657860008201527f697374656e7420746f6b656e0000000000000000000000000000000000000000602082015250565b7f4552433732314d657461646174613a2055524920717565727920666f72206e6f60008201527f6e6578697374656e7420746f6b656e0000000000000000000000000000000000602082015250565b7f7b226e616d65223a202200000000000000000000000000000000000000000000600082015250565b7f4552433732313a20617070726f76616c20746f2063757272656e74206f776e6560008201527f7200000000000000000000000000000000000000000000000000000000000000602082015250565b7f46495253545f574f524400000000000000000000000000000000000000000000600082015250565b7f646174613a6170706c69636174696f6e2f6a736f6e3b6261736536342c000000600082015250565b7f4552433732313a207472616e736665722063616c6c6572206973206e6f74206f60008201527f776e6572206e6f7220617070726f766564000000000000000000000000000000602082015250565b7f222c20226465736372697074696f6e223a202252616e646f6d6c792067656e6560008201527f7261746564207371756172657320666f722064656d6f204e465420707572706f60208201527f7365732e222c2022696d616765223a2022646174613a696d6167652f7376672b60408201527f786d6c3b6261736536342c000000000000000000000000000000000000000000606082015250565b6136e681612e6e565b81146136f157600080fd5b50565b6136fd81612e80565b811461370857600080fd5b50565b61371481612e8c565b811461371f57600080fd5b50565b61372b81612ed8565b811461373657600080fd5b5056fe416e204e465420772f20494420257320686173206265656e206d696e74656420746f2025734142434445464748494a4b4c4d4e4f505152535455565758595a6162636465666768696a6b6c6d6e6f707172737475767778797a303132333435363738392b2fa2646970667358221220c451a5888ceb832bc57760cc6840ce1fbc8827cc3724b802accd8f9ebc38f71b64736f6c634300080100333c73766720786d6c6e733d27687474703a2f2f7777772e77332e6f72672f323030302f73766727207072657365727665417370656374526174696f3d27784d696e594d696e206d656574272076696577426f783d273020302033353020333530273e3c7374796c653e2e62617365207b2066696c6c3a2077686974653b20666f6e742d66616d696c793a2073657269663b20666f6e742d73697a653a20323470783b207d3c2f7374796c653e3c726563742077696474683d273130302527206865696768743d2731303025272066696c6c3d27626c61636b27202f3e3c7465787420783d273530252720793d273530252720636c6173733d27626173652720646f6d696e616e742d626173656c696e653d276d6964646c652720746578742d616e63686f723d276d6964646c65273e",
  "linkReferences": {},
  "deployedLinkReferences": {}
}